{
  "address": "0x0009d6aa1DF164D902ED46a0bb9E9bc221489050",
  "abi": [
    {
      "inputs": [
        {
          "internalType": "address",
          "name": "vrfCoordinatorV2",
          "type": "address"
        },
        {
          "internalType": "uint256",
          "name": "_entranceFee",
          "type": "uint256"
        },
        {
          "internalType": "bytes32",
          "name": "_keyHash",
          "type": "bytes32"
        },
        {
          "internalType": "uint64",
          "name": "_subscriptionId",
          "type": "uint64"
        },
        {
          "internalType": "uint32",
          "name": "_callbackGasLimit",
          "type": "uint32"
        },
        {
          "internalType": "uint256",
          "name": "_interval",
          "type": "uint256"
        }
      ],
      "stateMutability": "nonpayable",
      "type": "constructor"
    },
    {
      "inputs": [],
      "name": "LotteryNotOpen",
      "type": "error"
    },
    {
      "inputs": [],
      "name": "Lottery_NotEnoughEthEntered",
      "type": "error"
    },
    {
      "inputs": [
        {
          "internalType": "address",
          "name": "have",
          "type": "address"
        },
        {
          "internalType": "address",
          "name": "want",
          "type": "address"
        }
      ],
      "name": "OnlyCoordinatorCanFulfill",
      "type": "error"
    },
    {
      "inputs": [],
      "name": "TransferFailed",
      "type": "error"
    },
    {
      "inputs": [
        {
          "internalType": "uint256",
          "name": "currentBalance",
          "type": "uint256"
        },
        {
          "internalType": "uint256",
          "name": "currentPlayers",
          "type": "uint256"
        },
        {
          "internalType": "uint256",
          "name": "currenRaffleState",
          "type": "uint256"
        }
      ],
      "name": "UpKeepNotNeeded",
      "type": "error"
    },
    {
      "anonymous": false,
      "inputs": [
        {
          "indexed": true,
          "internalType": "address",
          "name": "player",
          "type": "address"
        }
      ],
      "name": "RaffleEnter",
      "type": "event"
    },
    {
      "anonymous": false,
      "inputs": [
        {
          "indexed": true,
          "internalType": "uint256",
          "name": "requestId",
          "type": "uint256"
        }
      ],
      "name": "RequestRaffleWinner",
      "type": "event"
    },
    {
      "anonymous": false,
      "inputs": [
        {
          "indexed": true,
          "internalType": "address",
          "name": "winnerPicked",
          "type": "address"
        }
      ],
      "name": "WinnerPicked",
      "type": "event"
    },
    {
      "inputs": [
        {
          "internalType": "bytes",
          "name": "",
          "type": "bytes"
        }
      ],
      "name": "checkUpkeep",
      "outputs": [
        {
          "internalType": "bool",
          "name": "upkeepNeeded",
          "type": "bool"
        },
        {
          "internalType": "bytes",
          "name": "",
          "type": "bytes"
        }
      ],
      "stateMutability": "view",
      "type": "function"
    },
    {
      "inputs": [],
      "name": "enterRaffle",
      "outputs": [],
      "stateMutability": "payable",
      "type": "function"
    },
    {
      "inputs": [],
      "name": "getEntranceFee",
      "outputs": [
        {
          "internalType": "uint256",
          "name": "",
          "type": "uint256"
        }
      ],
      "stateMutability": "view",
      "type": "function"
    },
    {
      "inputs": [],
      "name": "getInterval",
      "outputs": [
        {
          "internalType": "uint256",
          "name": "",
          "type": "uint256"
        }
      ],
      "stateMutability": "view",
      "type": "function"
    },
    {
      "inputs": [],
      "name": "getLatestTimestamp",
      "outputs": [
        {
          "internalType": "uint256",
          "name": "",
          "type": "uint256"
        }
      ],
      "stateMutability": "view",
      "type": "function"
    },
    {
      "inputs": [],
      "name": "getNumPlayer",
      "outputs": [
        {
          "internalType": "uint256",
          "name": "",
          "type": "uint256"
        }
      ],
      "stateMutability": "view",
      "type": "function"
    },
    {
      "inputs": [],
      "name": "getNumWords",
      "outputs": [
        {
          "internalType": "uint256",
          "name": "",
          "type": "uint256"
        }
      ],
      "stateMutability": "pure",
      "type": "function"
    },
    {
      "inputs": [
        {
          "internalType": "uint256",
          "name": "_index",
          "type": "uint256"
        }
      ],
      "name": "getParticipant",
      "outputs": [
        {
          "internalType": "address",
          "name": "",
          "type": "address"
        }
      ],
      "stateMutability": "view",
      "type": "function"
    },
    {
      "inputs": [],
      "name": "getRaffleState",
      "outputs": [
        {
          "internalType": "uint256",
          "name": "",
          "type": "uint256"
        }
      ],
      "stateMutability": "view",
      "type": "function"
    },
    {
      "inputs": [],
      "name": "getRecentWinner",
      "outputs": [
        {
          "internalType": "address",
          "name": "",
          "type": "address"
        }
      ],
      "stateMutability": "view",
      "type": "function"
    },
    {
      "inputs": [],
      "name": "getRequestConfirmations",
      "outputs": [
        {
          "internalType": "uint256",
          "name": "",
          "type": "uint256"
        }
      ],
      "stateMutability": "pure",
      "type": "function"
    },
    {
      "inputs": [],
      "name": "getTime",
      "outputs": [
        {
          "internalType": "uint256",
          "name": "",
          "type": "uint256"
        }
      ],
      "stateMutability": "view",
      "type": "function"
    },
    {
      "inputs": [
        {
          "internalType": "bytes",
          "name": "",
          "type": "bytes"
        }
      ],
      "name": "performUpkeep",
      "outputs": [],
      "stateMutability": "nonpayable",
      "type": "function"
    },
    {
      "inputs": [
        {
          "internalType": "uint256",
          "name": "requestId",
          "type": "uint256"
        },
        {
          "internalType": "uint256[]",
          "name": "randomWords",
          "type": "uint256[]"
        }
      ],
      "name": "rawFulfillRandomWords",
      "outputs": [],
      "stateMutability": "nonpayable",
      "type": "function"
    }
  ],
  "transactionHash": "0xe75ee0ab5490319a3638776c999e5294f390eced5664fb4924858da7e18a9d23",
  "args": [
    "0x2ca8e0c643bde4c2e08ab1fa0da3401adad7734d",
    "10000000000000000",
    "0x79d3d8832d904592c0bf9818b621522c988bb8b0c05cdc3b15aea1b6e8db0c15",
    987,
    "500000",
    "30"
  ],
  "numDeployments": 1,
  "solcInputHash": "c078c09460567f7be204d18691b4158e",
  "bytecode": "0x6101606040523480156200001257600080fd5b5060405162001846380380620018468339818101604052810190620000389190620002a0565b858073ffffffffffffffffffffffffffffffffffffffff1660808173ffffffffffffffffffffffffffffffffffffffff1660601b81525050508573ffffffffffffffffffffffffffffffffffffffff1660c08173ffffffffffffffffffffffffffffffffffffffff1660601b815250508460a081815250508360e081815250508267ffffffffffffffff166101008167ffffffffffffffff1660c01b815250508163ffffffff166101208163ffffffff1660e01b815250506000600160146101000a81548160ff021916908360018111156200011957620001186200033c565b5b0217905550426002819055508061014081815250505050505050506200036b565b600080fd5b600073ffffffffffffffffffffffffffffffffffffffff82169050919050565b60006200016c826200013f565b9050919050565b6200017e816200015f565b81146200018a57600080fd5b50565b6000815190506200019e8162000173565b92915050565b6000819050919050565b620001b981620001a4565b8114620001c557600080fd5b50565b600081519050620001d981620001ae565b92915050565b6000819050919050565b620001f481620001df565b81146200020057600080fd5b50565b6000815190506200021481620001e9565b92915050565b600067ffffffffffffffff82169050919050565b62000239816200021a565b81146200024557600080fd5b50565b60008151905062000259816200022e565b92915050565b600063ffffffff82169050919050565b6200027a816200025f565b81146200028657600080fd5b50565b6000815190506200029a816200026f565b92915050565b60008060008060008060c08789031215620002c057620002bf6200013a565b5b6000620002d089828a016200018d565b9650506020620002e389828a01620001c8565b9550506040620002f689828a0162000203565b94505060606200030989828a0162000248565b93505060806200031c89828a0162000289565b92505060a06200032f89828a01620001c8565b9150509295509295509295565b7f4e487b7100000000000000000000000000000000000000000000000000000000600052602160045260246000fd5b60805160601c60a05160c05160601c60e0516101005160c01c6101205160e01c6101405161145f620003e76000396000818161089e01526109240152600061073901526000610716015260006106f5015260006106b901526000818161034001526104960152600081816103d6015261042a015261145f6000f3fe6080604052600436106100dd5760003560e01c806353a2c19a1161007f5780635f92b80e116100595780635f92b80e1461027d5780636e04ff0d146102a857806391ad27b4146102e6578063f43b52cb14610311576100dd565b806353a2c19a146101fc578063557ed1ba146102275780635f1b0fd814610252576100dd565b80631fe543e3116100bb5780631fe543e3146101755780632cfcc5391461019e5780634585e33b146101a8578063473f1ddc146101d1576100dd565b806309bc33a7146100e2578063115cbaf51461010d5780631b9db2ef14610138575b600080fd5b3480156100ee57600080fd5b506100f761033c565b6040516101049190610c43565b60405180910390f35b34801561011957600080fd5b50610122610364565b60405161012f9190610c43565b60405180910390f35b34801561014457600080fd5b5061015f600480360381019061015a9190610c9e565b61038d565b60405161016c9190610d0c565b60405180910390f35b34801561018157600080fd5b5061019c60048036038101906101979190610e80565b6103d4565b005b6101a6610494565b005b3480156101b457600080fd5b506101cf60048036038101906101ca9190610f37565b610603565b005b3480156101dd57600080fd5b506101e6610801565b6040516101f39190610d0c565b60405180910390f35b34801561020857600080fd5b5061021161082b565b60405161021e9190610c43565b60405180910390f35b34801561023357600080fd5b5061023c61083a565b6040516102499190610c43565b60405180910390f35b34801561025e57600080fd5b50610267610842565b6040516102749190610c43565b60405180910390f35b34801561028957600080fd5b5061029261084f565b60405161029f9190610c43565b60405180910390f35b3480156102b457600080fd5b506102cf60048036038101906102ca9190611039565b61085b565b6040516102dd929190611125565b60405180910390f35b3480156102f257600080fd5b506102fb610920565b6040516103089190610c43565b60405180910390f35b34801561031d57600080fd5b50610326610948565b6040516103339190610c43565b60405180910390f35b60007f0000000000000000000000000000000000000000000000000000000000000000905090565b6000600160149054906101000a900460ff16600181111561038857610387611155565b5b905090565b60008082815481106103a2576103a1611184565b5b9060005260206000200160009054906101000a900473ffffffffffffffffffffffffffffffffffffffff169050919050565b7f000000000000000000000000000000000000000000000000000000000000000073ffffffffffffffffffffffffffffffffffffffff163373ffffffffffffffffffffffffffffffffffffffff161461048657337f00000000000000000000000000000000000000000000000000000000000000006040517f1cf993f400000000000000000000000000000000000000000000000000000000815260040161047d9291906111b3565b60405180910390fd5b6104908282610952565b5050565b7f00000000000000000000000000000000000000000000000000000000000000003410156104ee576040517f1044bcb000000000000000000000000000000000000000000000000000000000815260040160405180910390fd5b6000600181111561050257610501611155565b5b600160149054906101000a900460ff16600181111561052457610523611155565b5b1461055b576040517f57a990f400000000000000000000000000000000000000000000000000000000815260040160405180910390fd5b6000339080600181540180825580915050600190039060005260206000200160009091909190916101000a81548173ffffffffffffffffffffffffffffffffffffffff021916908373ffffffffffffffffffffffffffffffffffffffff1602179055503373ffffffffffffffffffffffffffffffffffffffff167f0805e1d667bddb8a95f0f09880cf94f403fb596ce79928d9f29b74203ba284d460405160405180910390a2565b600061061d6040518060200160405280600081525061085b565b5090508061068b5747600080549050600160149054906101000a900460ff16600181111561064e5761064d611155565b5b6040517ea47e1b000000000000000000000000000000000000000000000000000000008152600401610682939291906111dc565b60405180910390fd5b60018060146101000a81548160ff021916908360018111156106b0576106af611155565b5b021790555060007f000000000000000000000000000000000000000000000000000000000000000073ffffffffffffffffffffffffffffffffffffffff16635d3b1d307f00000000000000000000000000000000000000000000000000000000000000007f000000000000000000000000000000000000000000000000000000000000000060037f000000000000000000000000000000000000000000000000000000000000000060016040518663ffffffff1660e01b815260040161077a95949392919061128b565b602060405180830381600087803b15801561079457600080fd5b505af11580156107a8573d6000803e3d6000fd5b505050506040513d601f19601f820116820180604052508101906107cc91906112f3565b9050807fde6349b018d6c03d837b67d9a198a6ba4842546f2295fe963fae141e5dbaef8160405160405180910390a250505050565b6000600160009054906101000a900473ffffffffffffffffffffffffffffffffffffffff16905090565b6000600163ffffffff16905090565b600042905090565b6000600361ffff16905090565b60008080549050905090565b600060606000600160149054906101000a900460ff16600181111561088357610882611155565b5b6000600181111561089757610896611155565b5b14905060007f0000000000000000000000000000000000000000000000000000000000000000600254426108cb919061134f565b1190506000806000805490501190506000804711905060008480156108ed5750835b80156108f65750825b80156108ff5750815b90508060405180602001604052806000815250965096505050505050915091565b60007f0000000000000000000000000000000000000000000000000000000000000000905090565b6000600254905090565b600080805490508260008151811061096d5761096c611184565b5b602002602001015161097f91906113b2565b9050600080828154811061099657610995611184565b5b9060005260206000200160009054906101000a900473ffffffffffffffffffffffffffffffffffffffff16905080600160006101000a81548173ffffffffffffffffffffffffffffffffffffffff021916908373ffffffffffffffffffffffffffffffffffffffff1602179055506000600160146101000a81548160ff02191690836001811115610a2a57610a29611155565b5b0217905550600067ffffffffffffffff811115610a4a57610a49610d3d565b5b604051908082528060200260200182016040528015610a785781602001602082028036833780820191505090505b5060009080519060200190610a8e929190610b83565b504260028190555060008173ffffffffffffffffffffffffffffffffffffffff1647604051610abc90611414565b60006040518083038185875af1925050503d8060008114610af9576040519150601f19603f3d011682016040523d82523d6000602084013e610afe565b606091505b5050905080610b39576040517f90b8ec1800000000000000000000000000000000000000000000000000000000815260040160405180910390fd5b8173ffffffffffffffffffffffffffffffffffffffff167f5b690ec4a06fe979403046eaeea5b3ce38524683c3001f662c8b5a829632f7df60405160405180910390a25050505050565b828054828255906000526020600020908101928215610bfc579160200282015b82811115610bfb5782518260006101000a81548173ffffffffffffffffffffffffffffffffffffffff021916908373ffffffffffffffffffffffffffffffffffffffff16021790555091602001919060010190610ba3565b5b509050610c099190610c0d565b5090565b5b80821115610c26576000816000905550600101610c0e565b5090565b6000819050919050565b610c3d81610c2a565b82525050565b6000602082019050610c586000830184610c34565b92915050565b6000604051905090565b600080fd5b600080fd5b610c7b81610c2a565b8114610c8657600080fd5b50565b600081359050610c9881610c72565b92915050565b600060208284031215610cb457610cb3610c68565b5b6000610cc284828501610c89565b91505092915050565b600073ffffffffffffffffffffffffffffffffffffffff82169050919050565b6000610cf682610ccb565b9050919050565b610d0681610ceb565b82525050565b6000602082019050610d216000830184610cfd565b92915050565b600080fd5b6000601f19601f8301169050919050565b7f4e487b7100000000000000000000000000000000000000000000000000000000600052604160045260246000fd5b610d7582610d2c565b810181811067ffffffffffffffff82111715610d9457610d93610d3d565b5b80604052505050565b6000610da7610c5e565b9050610db38282610d6c565b919050565b600067ffffffffffffffff821115610dd357610dd2610d3d565b5b602082029050602081019050919050565b600080fd5b6000610dfc610df784610db8565b610d9d565b90508083825260208201905060208402830185811115610e1f57610e1e610de4565b5b835b81811015610e485780610e348882610c89565b845260208401935050602081019050610e21565b5050509392505050565b600082601f830112610e6757610e66610d27565b5b8135610e77848260208601610de9565b91505092915050565b60008060408385031215610e9757610e96610c68565b5b6000610ea585828601610c89565b925050602083013567ffffffffffffffff811115610ec657610ec5610c6d565b5b610ed285828601610e52565b9150509250929050565b600080fd5b60008083601f840112610ef757610ef6610d27565b5b8235905067ffffffffffffffff811115610f1457610f13610edc565b5b602083019150836001820283011115610f3057610f2f610de4565b5b9250929050565b60008060208385031215610f4e57610f4d610c68565b5b600083013567ffffffffffffffff811115610f6c57610f6b610c6d565b5b610f7885828601610ee1565b92509250509250929050565b600080fd5b600067ffffffffffffffff821115610fa457610fa3610d3d565b5b610fad82610d2c565b9050602081019050919050565b82818337600083830152505050565b6000610fdc610fd784610f89565b610d9d565b905082815260208101848484011115610ff857610ff7610f84565b5b611003848285610fba565b509392505050565b600082601f8301126110205761101f610d27565b5b8135611030848260208601610fc9565b91505092915050565b60006020828403121561104f5761104e610c68565b5b600082013567ffffffffffffffff81111561106d5761106c610c6d565b5b6110798482850161100b565b91505092915050565b60008115159050919050565b61109781611082565b82525050565b600081519050919050565b600082825260208201905092915050565b60005b838110156110d75780820151818401526020810190506110bc565b838111156110e6576000848401525b50505050565b60006110f78261109d565b61110181856110a8565b93506111118185602086016110b9565b61111a81610d2c565b840191505092915050565b600060408201905061113a600083018561108e565b818103602083015261114c81846110ec565b90509392505050565b7f4e487b7100000000000000000000000000000000000000000000000000000000600052602160045260246000fd5b7f4e487b7100000000000000000000000000000000000000000000000000000000600052603260045260246000fd5b60006040820190506111c86000830185610cfd565b6111d56020830184610cfd565b9392505050565b60006060820190506111f16000830186610c34565b6111fe6020830185610c34565b61120b6040830184610c34565b949350505050565b6000819050919050565b61122681611213565b82525050565b600067ffffffffffffffff82169050919050565b6112498161122c565b82525050565b600061ffff82169050919050565b6112668161124f565b82525050565b600063ffffffff82169050919050565b6112858161126c565b82525050565b600060a0820190506112a0600083018861121d565b6112ad6020830187611240565b6112ba604083018661125d565b6112c7606083018561127c565b6112d4608083018461127c565b9695505050505050565b6000815190506112ed81610c72565b92915050565b60006020828403121561130957611308610c68565b5b6000611317848285016112de565b91505092915050565b7f4e487b7100000000000000000000000000000000000000000000000000000000600052601160045260246000fd5b600061135a82610c2a565b915061136583610c2a565b92508282101561137857611377611320565b5b828203905092915050565b7f4e487b7100000000000000000000000000000000000000000000000000000000600052601260045260246000fd5b60006113bd82610c2a565b91506113c883610c2a565b9250826113d8576113d7611383565b5b828206905092915050565b600081905092915050565b50565b60006113fe6000836113e3565b9150611409826113ee565b600082019050919050565b600061141f826113f1565b915081905091905056fea2646970667358221220654e641e9041b7e6a6fb4ef218e59f96b4c7444ae587d6df910af1c91f8b40bb64736f6c63430008080033",
  "devdoc": {
    "author": "Aadil Saudagar",
    "details": "This implements chainlink vrf v2 for random words and keepers for execution of lottery winner function after regular interval",
    "kind": "dev",
    "methods": {
      "checkUpkeep(bytes)": {
        "details": "This function is called by Chain Link Keeper nodes to check if the , the should call the performUpKeep function or not, if upKeepNeeded is true then performUpKeep is called Return tru if: 1] Defined time interval has passed 2] Lottery should have at least 1 player and eth 3] our subsrciption (for keeper nodes to use when calling the checkUpKeep) is funded with enough LINK tokens The lottery should be in \"open\" state => when we have called the requestRandomWinner function no other player should regoster / enter the raffle So we'll create a state variable for it. of type enum"
      }
    },
    "title": "A contract for lottery",
    "version": 1
  },
  "userdoc": {
    "kind": "user",
    "methods": {},
    "notice": "This contract is for a decetralised lottery",
    "version": 1
  },
  "storageLayout": {
    "storage": [
      {
        "astId": 198,
        "contract": "contracts/Lottery.sol:Lottery",
        "label": "s_participants",
        "offset": 0,
        "slot": "0",
        "type": "t_array(t_address_payable)dyn_storage"
      },
      {
        "astId": 215,
        "contract": "contracts/Lottery.sol:Lottery",
        "label": "s_recentWinner",
        "offset": 0,
        "slot": "1",
        "type": "t_address"
      },
      {
        "astId": 218,
        "contract": "contracts/Lottery.sol:Lottery",
        "label": "s_raffleState",
        "offset": 20,
        "slot": "1",
        "type": "t_enum(RaffleState)193"
      },
      {
        "astId": 220,
        "contract": "contracts/Lottery.sol:Lottery",
        "label": "s_lastTimeStamp",
        "offset": 0,
        "slot": "2",
        "type": "t_uint256"
      }
    ],
    "types": {
      "t_address": {
        "encoding": "inplace",
        "label": "address",
        "numberOfBytes": "20"
      },
      "t_address_payable": {
        "encoding": "inplace",
        "label": "address payable",
        "numberOfBytes": "20"
      },
      "t_array(t_address_payable)dyn_storage": {
        "base": "t_address_payable",
        "encoding": "dynamic_array",
        "label": "address payable[]",
        "numberOfBytes": "32"
      },
      "t_enum(RaffleState)193": {
        "encoding": "inplace",
        "label": "enum Lottery.RaffleState",
        "numberOfBytes": "1"
      },
      "t_uint256": {
        "encoding": "inplace",
        "label": "uint256",
        "numberOfBytes": "32"
      }
    }
  }
}